{
  "contractName": "Resister",
  "abi": [
    {
      "inputs": [
        {
          "internalType": "uint256",
          "name": "",
          "type": "uint256"
        }
      ],
      "name": "users",
      "outputs": [
        {
          "internalType": "address",
          "name": "",
          "type": "address"
        }
      ],
      "stateMutability": "view",
      "type": "function",
      "constant": true
    },
    {
      "inputs": [
        {
          "internalType": "string",
          "name": "_name",
          "type": "string"
        },
        {
          "internalType": "uint256",
          "name": "_age",
          "type": "uint256"
        },
        {
          "internalType": "string",
          "name": "_hobby",
          "type": "string"
        }
      ],
      "name": "registerAccount",
      "outputs": [
        {
          "internalType": "bool",
          "name": "",
          "type": "bool"
        }
      ],
      "stateMutability": "nonpayable",
      "type": "function"
    },
    {
      "inputs": [
        {
          "internalType": "address",
          "name": "user",
          "type": "address"
        }
      ],
      "name": "isUserExists",
      "outputs": [
        {
          "internalType": "bool",
          "name": "",
          "type": "bool"
        }
      ],
      "stateMutability": "view",
      "type": "function",
      "constant": true
    },
    {
      "inputs": [
        {
          "internalType": "address",
          "name": "user",
          "type": "address"
        }
      ],
      "name": "viewAccount",
      "outputs": [
        {
          "internalType": "string",
          "name": "",
          "type": "string"
        },
        {
          "internalType": "uint256",
          "name": "",
          "type": "uint256"
        },
        {
          "internalType": "string",
          "name": "",
          "type": "string"
        }
      ],
      "stateMutability": "view",
      "type": "function",
      "constant": true
    }
  ],
  "bytecode": "0x608060405234801561001057600080fd5b50610d23806100206000396000f3fe608060405234801561001057600080fd5b506004361061004c5760003560e01c8063365b98b214610051578063509222cd146100815780636b55f4a5146100b1578063d69abb30146100e3575b600080fd5b61006b600480360381019061006691906105ad565b610113565b604051610078919061061b565b60405180910390f35b61009b60048036038101906100969190610662565b610152565b6040516100a891906106aa565b60405180910390f35b6100cb60048036038101906100c69190610662565b610200565b6040516100da93929190610764565b60405180910390f35b6100fd60048036038101906100f891906108de565b6103fe565b60405161010a91906106aa565b60405180910390f35b6000818154811061012357600080fd5b906000526020600020016000915054906101000a900473ffffffffffffffffffffffffffffffffffffffff1681565b600080600090505b6000805490508110156101f5578273ffffffffffffffffffffffffffffffffffffffff166000828154811061019257610191610969565b5b9060005260206000200160009054906101000a900473ffffffffffffffffffffffffffffffffffffffff1673ffffffffffffffffffffffffffffffffffffffff16036101e25760019150506101fb565b80806101ed906109c7565b91505061015a565b50600090505b919050565b6060600060606000600160008673ffffffffffffffffffffffffffffffffffffffff1673ffffffffffffffffffffffffffffffffffffffff168152602001908152602001600020600001805461025590610a3e565b80601f016020809104026020016040519081016040528092919081815260200182805461028190610a3e565b80156102ce5780601f106102a3576101008083540402835291602001916102ce565b820191906000526020600020905b8154815290600101906020018083116102b157829003601f168201915b505050505090506000600160008773ffffffffffffffffffffffffffffffffffffffff1673ffffffffffffffffffffffffffffffffffffffff1681526020019081526020016000206001015490506000600160008873ffffffffffffffffffffffffffffffffffffffff1673ffffffffffffffffffffffffffffffffffffffff168152602001908152602001600020600201805461036b90610a3e565b80601f016020809104026020016040519081016040528092919081815260200182805461039790610a3e565b80156103e45780601f106103b9576101008083540402835291602001916103e4565b820191906000526020600020905b8154815290600101906020018083116103c757829003601f168201915b505050505090508282829550955095505050509193909250565b600061040933610152565b610471576000339080600181540180825580915050600190039060005260206000200160009091909190916101000a81548173ffffffffffffffffffffffffffffffffffffffff021916908373ffffffffffffffffffffffffffffffffffffffff1602179055505b83600160003373ffffffffffffffffffffffffffffffffffffffff1673ffffffffffffffffffffffffffffffffffffffff16815260200190815260200160002060000190816104c09190610c1b565b5082600160003373ffffffffffffffffffffffffffffffffffffffff1673ffffffffffffffffffffffffffffffffffffffff1681526020019081526020016000206001018190555081600160003373ffffffffffffffffffffffffffffffffffffffff1673ffffffffffffffffffffffffffffffffffffffff16815260200190815260200160002060020190816105579190610c1b565b50600190509392505050565b6000604051905090565b600080fd5b600080fd5b6000819050919050565b61058a81610577565b811461059557600080fd5b50565b6000813590506105a781610581565b92915050565b6000602082840312156105c3576105c261056d565b5b60006105d184828501610598565b91505092915050565b600073ffffffffffffffffffffffffffffffffffffffff82169050919050565b6000610605826105da565b9050919050565b610615816105fa565b82525050565b6000602082019050610630600083018461060c565b92915050565b61063f816105fa565b811461064a57600080fd5b50565b60008135905061065c81610636565b92915050565b6000602082840312156106785761067761056d565b5b60006106868482850161064d565b91505092915050565b60008115159050919050565b6106a48161068f565b82525050565b60006020820190506106bf600083018461069b565b92915050565b600081519050919050565b600082825260208201905092915050565b60005b838110156106ff5780820151818401526020810190506106e4565b60008484015250505050565b6000601f19601f8301169050919050565b6000610727826106c5565b61073181856106d0565b93506107418185602086016106e1565b61074a8161070b565b840191505092915050565b61075e81610577565b82525050565b6000606082019050818103600083015261077e818661071c565b905061078d6020830185610755565b818103604083015261079f818461071c565b9050949350505050565b600080fd5b600080fd5b7f4e487b7100000000000000000000000000000000000000000000000000000000600052604160045260246000fd5b6107eb8261070b565b810181811067ffffffffffffffff8211171561080a576108096107b3565b5b80604052505050565b600061081d610563565b905061082982826107e2565b919050565b600067ffffffffffffffff821115610849576108486107b3565b5b6108528261070b565b9050602081019050919050565b82818337600083830152505050565b600061088161087c8461082e565b610813565b90508281526020810184848401111561089d5761089c6107ae565b5b6108a884828561085f565b509392505050565b600082601f8301126108c5576108c46107a9565b5b81356108d584826020860161086e565b91505092915050565b6000806000606084860312156108f7576108f661056d565b5b600084013567ffffffffffffffff81111561091557610914610572565b5b610921868287016108b0565b935050602061093286828701610598565b925050604084013567ffffffffffffffff81111561095357610952610572565b5b61095f868287016108b0565b9150509250925092565b7f4e487b7100000000000000000000000000000000000000000000000000000000600052603260045260246000fd5b7f4e487b7100000000000000000000000000000000000000000000000000000000600052601160045260246000fd5b60006109d282610577565b91507fffffffffffffffffffffffffffffffffffffffffffffffffffffffffffffffff8203610a0457610a03610998565b5b600182019050919050565b7f4e487b7100000000000000000000000000000000000000000000000000000000600052602260045260246000fd5b60006002820490506001821680610a5657607f821691505b602082108103610a6957610a68610a0f565b5b50919050565b60008190508160005260206000209050919050565b60006020601f8301049050919050565b600082821b905092915050565b600060088302610ad17fffffffffffffffffffffffffffffffffffffffffffffffffffffffffffffffff82610a94565b610adb8683610a94565b95508019841693508086168417925050509392505050565b6000819050919050565b6000610b18610b13610b0e84610577565b610af3565b610577565b9050919050565b6000819050919050565b610b3283610afd565b610b46610b3e82610b1f565b848454610aa1565b825550505050565b600090565b610b5b610b4e565b610b66818484610b29565b505050565b5b81811015610b8a57610b7f600082610b53565b600181019050610b6c565b5050565b601f821115610bcf57610ba081610a6f565b610ba984610a84565b81016020851015610bb8578190505b610bcc610bc485610a84565b830182610b6b565b50505b505050565b600082821c905092915050565b6000610bf260001984600802610bd4565b1980831691505092915050565b6000610c0b8383610be1565b9150826002028217905092915050565b610c24826106c5565b67ffffffffffffffff811115610c3d57610c3c6107b3565b5b610c478254610a3e565b610c52828285610b8e565b600060209050601f831160018114610c855760008415610c73578287015190505b610c7d8582610bff565b865550610ce5565b601f198416610c9386610a6f565b60005b82811015610cbb57848901518255600182019150602085019450602081019050610c96565b86831015610cd85784890151610cd4601f891682610be1565b8355505b6001600288020188555050505b50505050505056fea2646970667358221220b9fc4d86e5cb0b716c0194ea86658cab155b4ea88f827cfd069e1f19d15f375b64736f6c63430008110033",
  "immutableReferences": {},
  "source": "// SPDX-License-Identifier: GPL-3.0\n\npragma solidity ^0.8.17;\n\ncontract Resister{\n\n    //\n    struct Data {\n        string name;\n        uint256 age;\n        string hobby;\n    }\n\n    address[] public users;//\n\n    mapping(address => Data) accounts;\n\n    //\n    function registerAccount(string memory _name, uint256 _age, string memory _hobby) public returns (bool){\n\n        //\n        if(!isUserExists(msg.sender)) {\n            users.push(msg.sender);\n        }\n        accounts[msg.sender].name = _name;\n        accounts[msg.sender].age = _age;\n        accounts[msg.sender].hobby = _hobby;\n        return true;\n    }\n\n    //\n    function isUserExists(address user) public view returns (bool) {\n        for(uint256 i = 0; i < users.length; i++){\n            if(users[i] == user){\n                return true;\n            }\n        }\n        return false;\n    }\n\n    //\n    function viewAccount(address user) public view returns (string memory,uint256,string memory){\n        string memory _name = accounts[user].name;\n        uint256 _age = accounts[user].age;\n        string memory _hobby = accounts[user].hobby;\n\n        return (_name,_age,_hobby);\n    }\n}",
  "sourcePath": "/home/yoshidamayu/dapps/eth_private_net/dapps-deploy/contracts/Resister.sol",
  "compiler": {
    "name": "solc",
    "version": "0.8.17+commit.8df45f5f.Emscripten.clang"
  },
  "schemaVersion": "3.4.11",
  "updatedAt": "2022-12-29T08:06:38.271Z",
  "networkType": "ethereum",
  "devdoc": {
    "kind": "dev",
    "methods": {},
    "version": 1
  },
  "userdoc": {
    "kind": "user",
    "methods": {},
    "version": 1
  }
}